{
  "transactions": [
    {
      "hash": "0x8ef06e9084dc8c5ca58102157dcea0dfd21467552c6be7ea4829bd4af2923b29",
      "transactionType": "CALL",
      "contractName": null,
      "contractAddress": "0x04d84928ee4675f471f7bbd45ef38054bdc47bea",
      "function": "mintNft(string)",
      "arguments": [
        "ipfs://bafybeig37ioir76s7mg5oobetncojcm3c3hxasyd4rvid4jqhy4gkaheg4/?filename=0-PUG.json"
      ],
      "transaction": {
        "from": "0x870d298d0a2af0f2161ec623109b8126f9ca3183",
        "to": "0x04d84928ee4675f471f7bbd45ef38054bdc47bea",
        "gas": "0x414c8",
        "value": "0x0",
        "input": "0xda86f4a900000000000000000000000000000000000000000000000000000000000000200000000000000000000000000000000000000000000000000000000000000057697066733a2f2f62616679626569673337696f6972373673376d67356f6f6265746e636f6a636d3363336878617379643472766964346a71687934676b61686567342f3f66696c656e616d653d302d5055472e6a736f6e000000000000000000",
        "nonce": "0x19",
        "chainId": "0xaa36a7"
      },
      "additionalContracts": [],
      "isFixedGasLimit": false
    }
  ],
  "receipts": [
    {
      "status": "0x1",
      "cumulativeGasUsed": "0x11869c5",
      "logs": [
        {
          "address": "0x04d84928ee4675f471f7bbd45ef38054bdc47bea",
          "topics": [
            "0xddf252ad1be2c89b69c2b068fc378daa952ba7f163c4a11628f55a4df523b3ef",
            "0x0000000000000000000000000000000000000000000000000000000000000000",
            "0x000000000000000000000000870d298d0a2af0f2161ec623109b8126f9ca3183",
            "0x0000000000000000000000000000000000000000000000000000000000000000"
          ],
          "data": "0x",
          "blockHash": "0xcdced09d0fc6775d7979125ef8e30f7530478477d4ead8b9ac96efb33bd78a03",
          "blockNumber": "0x8a92b5",
          "blockTimestamp": "0x68b03050",
          "transactionHash": "0x8ef06e9084dc8c5ca58102157dcea0dfd21467552c6be7ea4829bd4af2923b29",
          "transactionIndex": "0x90",
          "logIndex": "0xef",
          "removed": false
        }
      ],
      "logsBloom": "0x00000000000000000000000000000000000000000000000000000000000000000000000000000000000000000000000000000080000000000000000000000000000000000000000000000008000000000000000000000000000000000000000000000000120000000000000000000800000000000000000000000010000000000000000000000000400000000002000000000000000000000000000000000000000000000000000000000000000000000000000000000000000000000000000000000002000000000000000000000000000000000000000000000000000020000000000000000000000000080000040000000000000000000000000000000000",
      "type": "0x2",
      "transactionHash": "0x8ef06e9084dc8c5ca58102157dcea0dfd21467552c6be7ea4829bd4af2923b29",
      "transactionIndex": "0x90",
      "blockHash": "0xcdced09d0fc6775d7979125ef8e30f7530478477d4ead8b9ac96efb33bd78a03",
      "blockNumber": "0x8a92b5",
      "gasUsed": "0x2ca62",
      "effectiveGasPrice": "0x6fbd180",
      "from": "0x870d298d0a2af0f2161ec623109b8126f9ca3183",
      "to": "0x04d84928ee4675f471f7bbd45ef38054bdc47bea",
      "contractAddress": null
    }
  ],
  "libraries": [],
  "pending": [],
  "returns": {},
  "timestamp": 1756377168456,
  "chain": 11155111,
  "commit": "7fa6b0c"
}